{
  "_format": "hh3-artifact-1",
  "contractName": "Transactions",
  "sourceName": "contracts/Transactions.sol",
  "abi": [
    {
      "anonymous": false,
      "inputs": [
        {
          "indexed": false,
          "internalType": "address",
          "name": "from",
          "type": "address"
        },
        {
          "indexed": false,
          "internalType": "address",
          "name": "receiver",
          "type": "address"
        },
        {
          "indexed": false,
          "internalType": "uint256",
          "name": "amount",
          "type": "uint256"
        },
        {
          "indexed": false,
          "internalType": "string",
          "name": "message",
          "type": "string"
        },
        {
          "indexed": false,
          "internalType": "uint256",
          "name": "timestamp",
          "type": "uint256"
        },
        {
          "indexed": false,
          "internalType": "string",
          "name": "keyword",
          "type": "string"
        }
      ],
      "name": "Transfer",
      "type": "event"
    },
    {
      "inputs": [
        {
          "internalType": "address payable",
          "name": "receiver",
          "type": "address"
        },
        {
          "internalType": "uint256",
          "name": "amount",
          "type": "uint256"
        },
        {
          "internalType": "string",
          "name": "keyword",
          "type": "string"
        },
        {
          "internalType": "string",
          "name": "message",
          "type": "string"
        }
      ],
      "name": "createTransaction",
      "outputs": [],
      "stateMutability": "nonpayable",
      "type": "function"
    },
    {
      "inputs": [],
      "name": "getAllTransactions",
      "outputs": [
        {
          "components": [
            {
              "internalType": "address",
              "name": "sender",
              "type": "address"
            },
            {
              "internalType": "address",
              "name": "receiver",
              "type": "address"
            },
            {
              "internalType": "uint256",
              "name": "amount",
              "type": "uint256"
            },
            {
              "internalType": "string",
              "name": "message",
              "type": "string"
            },
            {
              "internalType": "uint256",
              "name": "timestamp",
              "type": "uint256"
            },
            {
              "internalType": "string",
              "name": "keyword",
              "type": "string"
            }
          ],
          "internalType": "struct Transactions.TransferStruct[]",
          "name": "",
          "type": "tuple[]"
        }
      ],
      "stateMutability": "view",
      "type": "function"
    }
  ],
  "bytecode": "0x6080604052348015600e575f5ffd5b50610d4b8061001c5f395ff3fe608060405234801561000f575f5ffd5b5060043610610034575f3560e01c806327506f531461003857806348ce3a7514610056575b5f5ffd5b610040610072565b60405161004d9190610666565b60405180910390f35b610070600480360381019061006b9190610828565b6102ab565b005b60606001805480602002602001604051908101604052809291908181526020015f905b828210156102a2578382905f5260205f2090600602016040518060c00160405290815f82015f9054906101000a900473ffffffffffffffffffffffffffffffffffffffff1673ffffffffffffffffffffffffffffffffffffffff1673ffffffffffffffffffffffffffffffffffffffff168152602001600182015f9054906101000a900473ffffffffffffffffffffffffffffffffffffffff1673ffffffffffffffffffffffffffffffffffffffff1673ffffffffffffffffffffffffffffffffffffffff16815260200160028201548152602001600382018054610179906108f1565b80601f01602080910402602001604051908101604052809291908181526020018280546101a5906108f1565b80156101f05780601f106101c7576101008083540402835291602001916101f0565b820191905f5260205f20905b8154815290600101906020018083116101d357829003601f168201915b5050505050815260200160048201548152602001600582018054610213906108f1565b80601f016020809104026020016040519081016040528092919081815260200182805461023f906108f1565b801561028a5780601f106102615761010080835404028352916020019161028a565b820191905f5260205f20905b81548152906001019060200180831161026d57829003601f168201915b50505050508152505081526020019060010190610095565b50505050905090565b60015f5f8282546102bc919061094e565b9250508190555060016040518060c001604052803373ffffffffffffffffffffffffffffffffffffffff1681526020018673ffffffffffffffffffffffffffffffffffffffff16815260200185815260200183815260200142815260200184815250908060018154018082558091505060019003905f5260205f2090600602015f909190919091505f820151815f015f6101000a81548173ffffffffffffffffffffffffffffffffffffffff021916908373ffffffffffffffffffffffffffffffffffffffff1602179055506020820151816001015f6101000a81548173ffffffffffffffffffffffffffffffffffffffff021916908373ffffffffffffffffffffffffffffffffffffffff1602179055506040820151816002015560608201518160030190816103ed9190610b21565b506080820151816004015560a082015181600501908161040d9190610b21565b5050507f416cfa4330a4565f45c2fd2dd4826a83a37443aba2ce6f79477c7355afac35fa33858584428760405161044996959493929190610ca8565b60405180910390a150505050565b5f81519050919050565b5f82825260208201905092915050565b5f819050602082019050919050565b5f73ffffffffffffffffffffffffffffffffffffffff82169050919050565b5f6104a982610480565b9050919050565b6104b98161049f565b82525050565b5f819050919050565b6104d1816104bf565b82525050565b5f81519050919050565b5f82825260208201905092915050565b8281835e5f83830152505050565b5f601f19601f8301169050919050565b5f610519826104d7565b61052381856104e1565b93506105338185602086016104f1565b61053c816104ff565b840191505092915050565b5f60c083015f83015161055c5f8601826104b0565b50602083015161056f60208601826104b0565b50604083015161058260408601826104c8565b506060830151848203606086015261059a828261050f565b91505060808301516105af60808601826104c8565b5060a083015184820360a08601526105c7828261050f565b9150508091505092915050565b5f6105df8383610547565b905092915050565b5f602082019050919050565b5f6105fd82610457565b6106078185610461565b93508360208202850161061985610471565b805f5b85811015610654578484038952815161063585826105d4565b9450610640836105e7565b925060208a0199505060018101905061061c565b50829750879550505050505092915050565b5f6020820190508181035f83015261067e81846105f3565b905092915050565b5f604051905090565b5f5ffd5b5f5ffd5b5f6106a182610480565b9050919050565b6106b181610697565b81146106bb575f5ffd5b50565b5f813590506106cc816106a8565b92915050565b6106db816104bf565b81146106e5575f5ffd5b50565b5f813590506106f6816106d2565b92915050565b5f5ffd5b5f5ffd5b7f4e487b71000000000000000000000000000000000000000000000000000000005f52604160045260245ffd5b61073a826104ff565b810181811067ffffffffffffffff8211171561075957610758610704565b5b80604052505050565b5f61076b610686565b90506107778282610731565b919050565b5f67ffffffffffffffff82111561079657610795610704565b5b61079f826104ff565b9050602081019050919050565b828183375f83830152505050565b5f6107cc6107c78461077c565b610762565b9050828152602081018484840111156107e8576107e7610700565b5b6107f38482856107ac565b509392505050565b5f82601f83011261080f5761080e6106fc565b5b813561081f8482602086016107ba565b91505092915050565b5f5f5f5f608085870312156108405761083f61068f565b5b5f61084d878288016106be565b945050602061085e878288016106e8565b935050604085013567ffffffffffffffff81111561087f5761087e610693565b5b61088b878288016107fb565b925050606085013567ffffffffffffffff8111156108ac576108ab610693565b5b6108b8878288016107fb565b91505092959194509250565b7f4e487b71000000000000000000000000000000000000000000000000000000005f52602260045260245ffd5b5f600282049050600182168061090857607f821691505b60208210810361091b5761091a6108c4565b5b50919050565b7f4e487b71000000000000000000000000000000000000000000000000000000005f52601160045260245ffd5b5f610958826104bf565b9150610963836104bf565b925082820190508082111561097b5761097a610921565b5b92915050565b5f819050815f5260205f209050919050565b5f6020601f8301049050919050565b5f82821b905092915050565b5f600883026109dd7fffffffffffffffffffffffffffffffffffffffffffffffffffffffffffffffff826109a2565b6109e786836109a2565b95508019841693508086168417925050509392505050565b5f819050919050565b5f610a22610a1d610a18846104bf565b6109ff565b6104bf565b9050919050565b5f819050919050565b610a3b83610a08565b610a4f610a4782610a29565b8484546109ae565b825550505050565b5f5f905090565b610a66610a57565b610a71818484610a32565b505050565b5b81811015610a9457610a895f82610a5e565b600181019050610a77565b5050565b601f821115610ad957610aaa81610981565b610ab384610993565b81016020851015610ac2578190505b610ad6610ace85610993565b830182610a76565b50505b505050565b5f82821c905092915050565b5f610af95f1984600802610ade565b1980831691505092915050565b5f610b118383610aea565b9150826002028217905092915050565b610b2a826104d7565b67ffffffffffffffff811115610b4357610b42610704565b5b610b4d82546108f1565b610b58828285610a98565b5f60209050601f831160018114610b89575f8415610b77578287015190505b610b818582610b06565b865550610be8565b601f198416610b9786610981565b5f5b82811015610bbe57848901518255600182019150602085019450602081019050610b99565b86831015610bdb5784890151610bd7601f891682610aea565b8355505b6001600288020188555050505b505050505050565b610bf98161049f565b82525050565b5f610c19610c14610c0f84610480565b6109ff565b610480565b9050919050565b5f610c2a82610bff565b9050919050565b5f610c3b82610c20565b9050919050565b610c4b81610c31565b82525050565b610c5a816104bf565b82525050565b5f82825260208201905092915050565b5f610c7a826104d7565b610c848185610c60565b9350610c948185602086016104f1565b610c9d816104ff565b840191505092915050565b5f60c082019050610cbb5f830189610bf0565b610cc86020830188610c42565b610cd56040830187610c51565b8181036060830152610ce78186610c70565b9050610cf66080830185610c51565b81810360a0830152610d088184610c70565b905097965050505050505056fea2646970667358221220ace6d400013292127d8639bee2614c532ed34c828e88c18e5ab33dd7ce2532f164736f6c634300081c0033",
  "linkReferences": {},
  "deployedLinkReferences": {},
  "immutableReferences": {},
  "inputSourceName": "project/contracts/Transactions.sol",
  "buildInfoId": "solc-0_8_28-4eae2468f89d0dd0a2a1432a4f4a28cc546699ac"
}